:020000040800F2
:1000000050070020CD0100085907000837040008F8
:100010005507000875020008E70D00080000000001
:10002000000000000000000000000000DF010008E8
:100030007902000800000000E3010008E501000863
:10004000E7010008E7010008E7010008E7010008F0
:10005000E7010008E7010008E7010008E7010008E0
:10006000E7010008E7010008E7010008E7010008D0
:10007000E7010008E7010008E7010008E7010008C0
:10008000E7010008E7010008E7010008E7010008B0
:10009000E7010008E7010008E7010008E7010008A0
:1000A000E7010008E7010008E7010008E701000890
:1000B000E7010008E7010008E7010008E701000880
:1000C000E7010008E7010008E7010008E701000870
:1000D000E7010008010D0008E7010008E70100083A
:1000E000E7010008E7010008E7010008E701000850
:1000F000E7010008E7010008E7010008E701000840
:10010000E7010008E7010008E7010008E70100082F
:10011000E7010008E7010008E7010008E70100081F
:10012000E7010008E7010008E7010008E70100080F
:1001300000F002F800F03AF80AA090E8000C8244BF
:100140008344AAF10107DA4501D100F02FF8AFF29C
:10015000090EBAE80F0013F0010F18BFFB1A43F0A5
:1001600001031847301E0000501E0000103A24BF43
:1001700078C878C1FAD8520724BF30C830C144BF0C
:1001800004680C607047000000230024002500264E
:10019000103A28BF78C1FBD8520728BF30C148BFEA
:1001A0000B6070471FB51FBD10B510BD00F033F8D0
:1001B0001146FFF7F7FF00F089FE00F051F803B495
:1001C000FFF7F2FF03BC00F010FE00000948804773
:1001D00009480047FEE7FEE7FEE7FEE7FEE7FEE729
:1001E000FEE7FEE7FEE7FEE704480549054A064B41
:1001F00070470000A10C00083101000850010020E8
:100200005007002050030020500300207047704723
:10021000704770477047754600F028F8AE460500F5
:100220006946534620F00700854618B020B5FFF711
:10023000DBFFBDE820404FF000064FF000074FF015
:1002400000084FF0000B21F00701AC46ACE8C009F4
:10025000ACE8C009ACE8C009ACE8C0098D467047FD
:100260000446AFF300802046FFF7A9FF004870471F
:10027000F000002000BFFEE770472DE9F041024684
:1002800000250026002000230024002791F803C049
:100290000CF00F0591F803C00CF0100CBCF1000F2E
:1002A00003D091F802C04CEA050591F800C0BCF1FA
:1002B000000F31D0146800202BE04FF0010C0CFA35
:1002C00000F3B1F800C00CEA03069E4220D183007F
:1002D0004FF00F0C0CFA03F7BC4305FA03FC4CEA91
:1002E000040491F803C0BCF1280F06D14FF0010CB3
:1002F0000CFA00FCC2F814C00AE091F803C0BCF18B
:10030000480F05D14FF0010C0CFA00FCC2F810C0E8
:10031000401C0828D1D31460B1F800C0BCF1FF0F15
:1003200034DD546800202EE000F1080C4FF0010885
:1003300008FA0CF3B1F800C00CEA03069E4221D182
:1003400083004FF00F0C0CFA03F7BC4305FA03FCD3
:100350004CEA040491F803C0BCF1280F05D100F168
:10036000080C08FA0CF8C2F8148091F803C0BCF12C
:10037000480F07D100F1080C4FF0010808FA0CF8FB
:10038000C2F81080401C0828CED35460BDE8F0812C
:10039000F0B50A46002300240021002500F00046A5
:1003A000B6F1004F02D11D4EF16901E01B4E71689C
:1003B000C0F3034583B200F44016B6F5401F08D1E0
:1003C00021F07061154E766826F07066134F7E60DE
:1003D00012E000F48016B6F5801F06D1032606FA57
:1003E00005F4A14341F0706106E0460D360103FAC1
:1003F00006F6B14341F0706122B1460D360103FAB1
:1004000006F6314300F00046B6F1004F02D1034E2C
:10041000F16101E0014E7160F0BD0000000001409B
:100420000246002093680B400BB1012000E0002041
:1004300070470161704700BFFEE700001448806903
:1004400040F01800124988611248006820F070409E
:10045000104908600846006840F0405008600D48A8
:100460000830006840F400400A49083108600A4832
:10047000406820F47060084948600846406840F4CD
:10048000407048600846C06840F48060C8607047AB
:1004900000100240040C01400010014070B50446F9
:1004A0001348006820F07040114908600846006851
:1004B00040F04050086000200E490860002513E01D
:1004C000E0090D4908606006040E01200B49C1F8DF
:1004D000A801022000F0D4FC002006490860022098
:1004E00000F0CEFC681CC5B2082DE9DB70BD000031
:1004F000040C0140A8012242BC812142000022429A
:1005000010B50F48006820F070400D49086008469B
:10051000006840F04050086001200A4908600A491C
:10052000C1F8A801042000F0ABFC002005490860D8
:10053000042000F0A5FC00200349C1F8A80110BD6B
:10054000040C0140BC8121420000224210B50F483A
:10055000006820F070400D4908600846006840F0CF
:100560004050086000200A4908600A49C1F8BC01EF
:10057000042000F085FC012005490860042000F0FB
:100580007FFC01200349C1F8BC0110BD040C0140EF
:10059000A80122420080214210B5002413480068BF
:1005A00020F07040114908600846006840F00040A3
:1005B000086001200E49086000F062FC01200D492E
:1005C000C1F8A80100F05CFC07E0601CC4B2FA2C82
:1005D00003DDFFF7BBFF012010BD05488038006830
:1005E0000028F2D10449086000BFF5E7040C01407F
:1005F000BC81214200002242A801224208B501210B
:10060000142000F0B5FA01211148FFF7C1FE4FF4A4
:100610000040ADF8000048208DF8030069460D4801
:10062000FFF72BFE2020ADF8000048208DF80300D6
:1006300069460948FFF721FE0120ADF80000282097
:100640008DF8030069460348FFF717FE08BD000058
:1006500000023000000801400010014010B50446BF
:1006600014B10120244908702348007868B3202180
:100670002248FFF7D5FE58B14FF400412048FFF75C
:10068000CFFE28B101211E48FFF7CAFE01281CD168
:100690000A2000F0CFFB00201749087020211748DE
:1006A000FFF7BEFE08B9012010BD4FF40041144809
:1006B000FFF7B6FE08B90220F6E701211048FFF760
:1006C000AFFE012815D10320EEE720210B48FFF7EC
:1006D000A7FE01280DD1C1030948FFF7A1FE01289B
:1006E00007D101210648FFF79BFE10B901200249FE
:1006F00008700020D8E7000026000020001001400C
:100700000008014008B50121242000F031FA4FF41F
:100710008070ADF8000010208DF8030003208DF8E4
:10072000020069460948FFF7A8FD4FF480710748A9
:10073000FFF77FFE0420ADF8000069460448FFF78C
:100740009CFD04210248FFF774FE08BD000801402B
:100750000014014000BFFEE77047000010B51148CB
:10076000006808B9012000E000200E4908600E482A
:100770000068401C0C4908600846007800F0010041
:1007800028B104220021282000F032F909E00648AF
:10079000007800F0010020B903220021282000F099
:1007A00027F910BDA00121420000002010B511481A
:1007B000006808B9012000E000200E4908600E48DA
:1007C0000068401C0C4908600846007800F00100F1
:1007D00028B904220221282000F00AF909E006487D
:1007E000007800F0010020B103220221282000F04F
:1007F000FFF810BD888122420400002070B500245B
:1008000019E004F1B001C8B2002100F094F9002110
:10081000084600F090F90021102000F08CF9002526
:1008200005E00121002000F086F9681CC5B2802D8A
:10083000F7DB601CC4B2082CE3DB70BD2DE9F05F70
:1008400006460F4690461C46DDF828A04FF0000BE8
:10085000E11704EB5171C910A4EBC10131B9204675
:10086000E11704EB5171C1F3C70506E02046E1171B
:1008700004EB5171C910491CCDB23D4615E0294623
:10088000304600F09FF8B1460BE059460BF1010BE2
:100890001AF80100012100F04EF909F1010000F001
:1008A000FF09C145F1DB681CC5B2A542E7DBBDE825
:1008B000F09F10B5FFF7C2FDC82000F0BBFA002181
:1008C000AE2000F038F90021084600F034F900218C
:1008D000102000F030F90021402000F02CF9002118
:1008E000B02000F028F90021812000F024F9002137
:1008F000FF2000F020F90021A12000F01CF90021C8
:10090000A62000F018F90021A82000F014F9002119
:100910003F2000F010F90021C82000F00CF9002160
:10092000D32000F008F90021084600F004F9002166
:10093000D52000F000F90021802000F0FCF8002113
:10094000D92000F0F8F80021F12000F0F4F800219F
:10095000DA2000F0F0F80021122000F0ECF800217D
:10096000DB2000F0E8F80021302000F0E4F800215E
:10097000202000F0E0F80021022000F0DCF8002147
:100980008D2000F0D8F80021142000F0D4F80021C8
:10099000A42000F0D0F80021A62000F0CCF800211F
:1009A000AF2000F0C8F8FFF729FF10BD08B50448D4
:1009B00008238022002100900846FFF73FFF08BD72
:1009C000941B000870B504460D4605F1B001C8B28D
:1009D000002100F0B0F8102141EA1410002100F0CD
:1009E000AAF804F00F00002100F0A5F870BD000087
:1009F0002DE9F04180460E46154600273146404617
:100A0000FFF7E0FF00240AE0124A02EB8511085DBF
:100A1000012100F090F8781CC7B2601CC4B2102C01
:100A2000F2DB701CC1B24046FFF7CCFF00240CE0A3
:100A30006900491C074A02EB4111085D012100F0E1
:100A40007AF8781CC7B2601CC4B2102CF0DBBDE889
:100A5000F0810000941700082DE9F04707460E4684
:100A60009046994600250024A8F12000C5B27F2FAA
:100A700002DD0027B01CC6B2B9F1100F24D13146F7
:100A80003846FFF79FFF002408E004EB0511194AE0
:100A9000505C012100F04FF8601CC4B2082CF4DB5C
:100AA000701CC1B23846FFF78DFF002409E004EB4B
:100AB000051108310F4A505C012100F03CF8601C20
:100AC000C4B2082CF3DB12E031463846FFF77AFF58
:100AD00000240AE005EB4501074A02EB4101085DED
:100AE000012100F028F8601CC4B2062CF2DBBDE83E
:100AF000F0870000A41100087C0F00082DE9F041E8
:100B000004460F461546984600260FE0AA5D434668
:100B100039462046FFF7A0FF04F10800C4B2782C44
:100B200002DD0024B81CC7B2701CC6B2A85D002844
:100B3000ECD1BDE8F08170B505460C46FFF7E0FC4E
:100B40007820FFF7ABFCFFF727FD1CB14020FFF733
:100B5000A5FC02E00020FFF7A1FCFFF71DFD2846E1
:100B6000FFF79CFCFFF718FDFFF7F0FC70BD0000DD
:100B700029B1064A92690243044B9A6104E0034A90
:100B800092698243014B9A61704700000010024055
:100B900010B500F001F810BD0CB5002001900090D8
:100BA0003348006840F480303149086000BF304865
:100BB000006800F4003000900198401C01900098FB
:100BC00018B90198B0F5A06FF1D12948006800F478
:100BD000003010B10120009001E00020009000984A
:100BE000012843D12348006840F0100021490860E3
:100BF0000846006820F0030008600846006840F0DE
:100C0000020008601A484068194948600846406870
:100C100048600846406840F4806048600846406884
:100C200020F47C1048600846406840F4E8104860B2
:100C30000846006840F08070086000BF0C480068FB
:100C400000F000700028F9D00948406820F0030047
:100C5000074948600846406840F00200486000BF0D
:100C60000348406800F00C000828F9D10CBD0000D2
:100C70000010024000200240042808D14FF0E0217B
:100C8000096941F004014FF0E022116107E04FF0E3
:100C9000E021096921F004014FF0E0221161704761
:100CA00010B51348006840F001001149086008467B
:100CB0004068104908400E494860084600680E49DF
:100CC00008400B4908600846006820F4802008604E
:100CD0000846406820F4FE0048604FF41F0088601A
:100CE000FFF756FF4FF000600449086010BD000098
:100CF000001002400000FFF8FFFFF6FE08ED00E0E4
:100D000010B540F225511D4800F03EF810B31B48C5
:100D100000F064F8C4B21A48008800F40040C8B972
:100D20001748008800F4804060B10A2C03D00020EE
:100D30001349088020E01248008840F40040104920
:100D4000088019E00D2C06D10D48008840F4804041
:100D50000B49088010E00A480088C0F30D000949DB
:100D60000C5407480088401C054908800846008844
:100D7000C72801DD0020088010BD000000380140B8
:100D8000240000202800002070B502460024002323
:100D90000025002040F66A16B14200D100BFC1F321
:100DA000421501F01F03012606FA03F3012D02D1BB
:100DB0009689334006E0022D02D1168A334001E0C5
:100DC000968A33400C12012606FA04F41688344041
:100DD00013B10CB1012000E0002070BD01468888ED
:100DE000C0F30800704700BFFEE7014600BF704730
:100DF00010B56FF00400FFF73FFF0A4800680A498A
:100E0000B0FBF1F0094908700846007800EB40019A
:100E1000C1EBC0104FF6FF7101EAC0000449088021
:100E200010BD00000800002000127A001C00002005
:100E30001E0000200146114A12884A434FF0E02369
:100E40005A6100229A611A46126942F001021A613F
:100E500000BF4FF0E022106900F001021AB100F467
:100E60008032002AF5D04FF0E022126922F0010210
:100E70004FF0E0231A6100229A6170471E000020A3
:100E80000146114A12784A434FF0E0235A6100228A
:100E90009A611A46126942F001021A6100BF4FF0CE
:100EA000E022106900F001021AB100F48032002A39
:100EB000F5D04FF0E022126922F001024FF0E0235A
:100EC0001A6100229A6170471C000020FFF790FF12
:100ED000FFF718FCFFF792FBFFF7EBFCFFF766FD4F
:100EE0000020214908604FF4FA50FFF7A3FF4FF4A8
:100EF000FA50FFF79FFF4FF4FA50FFF79BFFFFF701
:100F00007DFC102319A200210846FFF7F7FD1023EE
:100F100018A202210020FFF7F1FD03220021282062
:100F2000FFF766FD042202212820FFF761FD1AE089
:100F30000020FFF793FB0446012C04D0022C05D0BF
:100F4000032C0BD105E0FFF709FC0BE0FFF72EFCAB
:100F500008E0FFF703FCFFF729FC03E00A20FFF796
:100F600069FF00BF00BFE3E7A00121424C454430C8
:100F70003A0000004C4544313A00000000000000F7
:100F800000000000002F0000000007000700001410
:100F90007F147F1400242A7F2A120062640813231E
:100FA00000364955225000000503000000001C22B5
:100FB0004100000041221C000014083E08140008F3
:100FC000083E0808000000A06000000808080808A3
:100FD000000060600000002010080402003E51493B
:100FE000453E0000427F40000042615149460021D9
:100FF00041454B31001814127F10002745454539F3
:10100000003C4A494930000171090503003649494D
:10101000493600064949291E000036360000000006
:101020005636000000081422410000141414141451
:1010300000004122140800020151090600324959FA
:10104000513E007C1211127C007F49494936003E16
:1010500041414122007F4141221C007F49494941D1
:10106000007F09090901003E4149497A007F0808CB
:10107000087F0000417F4100002040413F01007F88
:1010800008142241007F40404040007F020C027F54
:10109000007F0408107F003E4141413E007F090966
:1010A0000906003E4151215E007F0919294600468C
:1010B000494949310001017F0101003F4040403F63
:1010C000001F2040201F003F4038403F00631408AD
:1010D0001463000708700807006151494543000088
:1010E0007F41410000552A552A55000041417F00AB
:1010F00000040201020400404040404000000102A0
:101100000400002054545478007F48444438003888
:101110004444442000384444487F00385454541810
:1011200000087E0901020018A4A4A47C007F080422
:1011300004780000447D4000004080847D00007FF2
:10114000102844000000417F4000007C041804780F
:10115000007C0804047800384444443800FC24240B
:1011600024180018242418FC007C080404080048F3
:101170005454542000043F444020003C4040207C14
:10118000001C2040201C003C4030403C0044281003
:101190002844001CA0A0A07C004464544C441414B7
:1011A00014141414000000000000000000000000EF
:1011B00000000000000000F8000000000000003304
:1011C0003000000000100C06100C060000000000AB
:1011D0000000000040C07840C0784000043F040494
:1011E0003F040400007088FC08300000001820FF55
:1011F000211E0000F008F000E018000000211C0390
:101200001E211E0000F00888700000001E2123240B
:101210001927211010160E00000000000000000029
:1012200000000000000000E01804020000000007B9
:101230001820400000020418E000000000402018C0
:1012400007000000404080F0804040000202010F93
:1012500001020200000000F0000000000101011F77
:1012600001010100000000000000000080B07000DB
:10127000000000000000000000000000000101016B
:1012800001010101000000000000000000303000FA
:1012900000000000000000008060180400601806D4
:1012A0000100000000E010080810E000000F10200E
:1012B00020100F00001010F8000000000020203F58
:1012C00020200000007008080888700000302824E2
:1012D0002221300000300888884830000018202083
:1012E00020110E000000C02010F8000000070424A8
:1012F000243F240000F808888808080000192120ED
:1013000020110E0000E0108888180000000F112046
:1013100020110E0000380808C83808000000003FFF
:10132000000000000070880808887000001C22215E
:1013300021221C0000E010080810E000000031220B
:1013400022110F00000000C0C000000000000030AB
:1013500030000000000000800000000000008060FD
:10136000000000000000804020100800000102047E
:101370000810200040404040404040000404040465
:101380000404040000081020408000000020100821
:1013900004020100007048080808F0000000003056
:1013A00036010000C030C828E810E00007182724E4
:1013B00023140B000000C038E0000000203C230292
:1013C0000227382008F8888888700000203F2020F5
:1013D00020110E00C0300808080838000718202027
:1013E0002010080008F808080810E000203F20201E
:1013F00020100F0008F88888E8081000203F2020FF
:101400002320180008F88888E8081000203F2000F2
:1014100003000000C030080808380000071820202A
:10142000221E020008F808000008F808203F2101E9
:1014300001213F20000808F8080800000020203F94
:101440002020000000000808F8080800C080808004
:101450007F00000008F888C028180800203F2001FD
:101460002638200008F8080000000000203F202057
:101470002020300008F8F800F8F80800203F003F6E
:10148000003F200008F830C00008F808203F200086
:1014900007183F00E01008080810E0000F10202097
:1014A00020100F0008F808080808F000203F21016C
:1014B00001010000E01008080810E0000F182424C3
:1014C00038504F0008F8888888887000203F200036
:1014D000030C3020007088080808380000382021EC
:1014E00021221C00180808F8080818000000203FF6
:1014F0002000000008F808000008F808001F20205D
:1015000020201F000878880000C83808000007382D
:101510000E010000F80800F80008F800033C07007E
:10152000073C0300081868808068180820302C03E6
:10153000032C30200838C800C83808000000203FBD
:101540002000000010080808C838080020382621AC
:1015500020201800000000FE020202000000007FB0
:1015600040404000000C30C00000000000000001BE
:101570000638C00000020202FE00000000404040A9
:101580007F000000000004020202040000000000CE
:10159000000000000000000000000000808080804B
:1015A0008080808000020204000000000000000033
:1015B00000000000000080808080000000192422CC
:1015C00022223F2008F8008080000000003F112008
:1015D00020110E000000008080800000000E11200D
:1015E00020201100000000808088F800000E1120EB
:1015F00020103F200000808080800000001F2222F9
:1016000022221300008080F0888888180020203F64
:10161000202000000000808080808000006B949477
:101620009493600008F8008080800000203F210033
:1016300000203F2000809898000000000020203FFC
:1016400020200000000000809898000000C08080EA
:10165000807F000008F8000080808000203F240286
:101660002D302000000808F8000000000020203F76
:10167000202000008080808080808000203F20002B
:101680003F20003F8080008080800000203F2100BC
:1016900000203F200000808080800000001F20206C
:1016A00020201F00808000808000000080FFA1209B
:1016B00020110E000000008080808000000E1120AC
:1016C00020A0FF80808080008080800020203F213B
:1016D00020000100000080808080800000332424EE
:1016E00024241900008080E0808000000000001F9A
:1016F000202000008080000000808000001F20204B
:1017000020103F20808080000080808000010E300B
:101710000806010080800080008080800F300C036C
:101720000C300F0000808000808080000020312E6F
:101730000E312000808080000080808080818E704B
:101740001806010000808080808080000021302CFD
:101750002221300000000000807C02020000000016
:10176000003F404000000000FF00000000000000BB
:10177000FF0000000002027C800000000040403FAB
:101780000000000000060101020204040000000045
:1017900000000000101012D2525F52F2525F52D27B
:1017A0001210100000000000000000000000000007
:1017B000000000000000009F5232121F1232529FA0
:1017C0000000000000000000000000000000000019
:1017D00000000000000000FE2222222222222222FB
:1017E000FE000000000000000000000000000000FB
:1017F000000000008040300F02020202020242821A
:101800007F00000000000000000000000000000059
:1018100000000000201808484848494E48484848F9
:101820000828180000000000000000000000000070
:10183000000000000042221A0242827E0202020AD6
:101840001262000000000000000000000000000024
:101850000000000080828282FE8282828282FE827A
:1018600082828000000000000000000000000000F4
:1018700000000000008040300F0000000000FF006A
:101880000000000000000000000000000000000058
:101890000000000000001011161010F010101413BA
:1018A0001000000000000000000000000000000028
:1018B000000000008181414121110D030D112141E2
:1018C00041818100000000000000000000000000D5
:1018D000000000000000F888888888FF88888888D1
:1018E000F800000000000000000000000000000000
:1018F0000000000000001F080808087F888888880A
:101900009F80F000000000000000000000000000C8
:101910000000000080828282828282E2A2928A8615
:101920008280800000000000000000000000000035
:1019300000000000000000000040807F0000000068
:101940000000000000000000000000000000000097
:10195000000000002424A4FEA3220022CC0000FFEB
:101960000000000000000000000000000000000077
:1019700000000000080601FF00010404040404FF45
:101980000202020000000000000000000000000051
:1019900000000000101010FF109008888888FF8851
:1019A000888808000000000000000000000000001F
:1019B000000000000444827F01808040432C1028F6
:1019C00046818000000000000000000000000000D0
:1019D000000000004040484848C8784F4848484800
:1019E000484040000000000000000000000000002F
:1019F00000000000000000000312122222528A069A
:101A000000000000000000000000000000000000D6
:101A1000000000000010608000FF000000FF0000D8
:101A2000C0300000000000000000000000000000C6
:101A30000000000040404043407F4040407F424122
:101A400040404000000000000000000000000000D6
:101A500000000000101010FF109008888888FF8890
:101A6000888808000000000000000000000000005E
:101A7000000000000444827F01808040432C102835
:101A8000468180000000000000000000000000000F
:101A9000000000000010101010D030FF30D0121CD9
:101AA0001010000000000000000000000000000016
:101AB0000000000010080402010000FF0000010205
:101AC00004081000000000000000000000000000FA
:101AD000000000000000FE222222FE00FE82829210
:101AE000A29E0000000000000000000000000000B6
:101AF0000000000080601F0242827F00FF402F1024
:101B00002C438000000000000000000000000000E6
:101B100000000000000090884C57A42454548C848A
:101B200000000000000000000000000000000000B5
:101B30000000000001018042221A07024282423E58
:101B40000101010000000000000000000000000092
:101B5000000000000004E4242CB4252624B42C2426
:101B6000E40400000000000000000000000000008D
:101B7000000000000000FF02011E1212121E41822E
:101B80007F000000000000000000000000000000D6
:101B90000000000000060AFE0AC600E000F000F89F
:101BA000000000000000FE7DBBC7EFEFEFEFEFEF9E
:101BB000EFC7BB7DFE000000000000000000000039
:101BC0000000000000000000000000000000000015
:101BD0000000000000000000000000000000000005
:101BE00000000000000000000000000000000000F5
:101BF000000000080CFEFE0C082060FEFE602000C5
:101C000000007848FE82BABA82BABA82BABA82BAF8
:101C1000BA82FE000000000000000000000000008A
:101C200000000000000000010101010101010101AB
:101C300001010101000000000000000000000000A0
:101C40000000000000000000000000000000000094
:101C50000000000000000000000000000000000084
:101C60000000000000000000000000000000000074
:101C70000000000000000000000000000000000064
:101C80000000000000000000000000000000000054
:101C90000000000000000000000000000000000044
:101CA0000000000000000000000000000000000034
:101CB0000000FEFF030303030303030303FFFF000E
:101CC00000FEFF030303030303030303FFFE0000FF
:101CD0000000C0C0C000000000FEFF0303030303B8
:101CE00003030303FFFE0000FEFF030303030303DC
:101CF000030303FFFE0000000000000000000000DE
:101D000000000000000000000000000000000000D3
:101D100000000000000000000000000000000000C3
:101D200000000000000000000000000000000000B3
:101D30000000FFFF000000000000000000FFFF00A7
:101D400000FFFF0C0C0C0C0C0C0C0C0CFFFF00002B
:101D50000000E1E1E100000000FFFF0000000000E2
:101D600000000000FFFF0000FFFF0C0C0C0C0C0C2F
:101D70000C0C0CFFFF000000000000000000000041
:101D80000000000000000000000000000000000053
:101D90000000000000000000000000000000000043
:101DA0000000000000000000000000000000000033
:101DB00000000F1F1818181818181818181F0F00EF
:101DC000000F1F1818181818181818181F0F0000DF
:101DD0000000000000000000000F1F18181818185D
:101DE000181818181F0F00000F1F181818181818A7
:101DF0001818181F0F00000000000000000000006D
:101E000000000000000000000000000000000000D2
:101E100000000000000000000000000000000000C2
:101E200000000000000000000000000000000000B2
:101E30000000000000008C4222120C00FC02020292
:101E4000FC000004FE000000205844FE400010107A
:101E5000101010000004FE000000FC020202FC0052
:101E6000101010101000FC020202FC000004FE0022
:101E70000000000000000000000000000000000062
:101E80000000000000000000000000000000000052
:101E9000000000000024A42E24E4242EA42400002A
:101EA00000F84A4C48F8484C4AF80000000000008E
:101EB000000000000000010101010100000101011A
:101EC000000000010101000000000001010000000D
:101ED00000000000000101010000000101010000FC
:101EE00000000000000000010101000000010101EC
:101EF00000000000000000000000000000000000E2
:101F0000C0201010101020C00000C02010101010B1
:101F100020C0000000120A07027F02070A12000018
:101F2000000B0A0A0A7F0A0A0A0B000000000000E0
:101F300000000000000000000000000000000000A1
:101F40000000000000000000000000000000000091
:101F50000000000000000000000000000000000081
:101F60000000000000000000000000000000000071
:101F70000000000000000000000000000000000061
:101F80001F2040404050205F80001F2040404050B4
:101F9000205F8000B41F000800000020280000001F
:101FA0006C010008DC1F0008280000202807000042
:101FB00088010008000000000000000000A24A04A0
:101FC00000000000000000000102030406070809E9
:0C1FD00000000000000000000000010004
:0400000508000131BD
:00000001FF
